S01A00005669736962696C6974795F50726F6A6563742E73726563AC
S11300000C942A000C943E070C9467070C949007F8
S11300100C94E3080C94BA080C9491080C943F08CF
S11300200C9468080C9416080C9447000C94470030
S11300300C9447000C9447000C9447000C94470020
S11300400C9447000C9447000C9447000C94470010
S11300500C94470011241FBECFE5D8E0DEBFCDBF0E
S113006011E0A0E6B0E0ECE8F2E102C005900D92E8
S1130070A830B107D9F721E0A8E0B1E001C01D9292
S1130080A232B207E1F70E9448040C9444090C948C
S1130090000080911E0190911F01A0912001B09158
S11300A021010196A11DB11D80931E0190931F0192
S11300B0A0932001B0932101089580E00E943604AA
S11300C081E00E9436048FE00E94360482E00E94A0
S11300D0360489E490E00E940C09089510921E01F0
S11300E010921F0110922001109221010E941F09F9
S11300F008958BE00E943E06811149C00E946E0063
S11301008BE00E943E068823D9F380911E019091D2
S11301101F01A0912001B0912101883E23E09207A4
S1130120A105B105D0F480910B01882319F0813029
S113013041F00DC081E080930B018FE00E943204F6
S113014023C08FE00E94360410920B011DC08FE083
S11301500E94360410920B0117C0AC01BD01485E29
S11301605340610971094C3D55406105710520F406
S113017082E080930B0108C0843C9940A105B1053D
S113018018F083E080930B0181E080936000089570
S113019089E00E943E06811145C00E946E0089E0FC
S11301A00E943E068823D9F380911E0190911F017D
S11301B0A0912001B0912101883E23E09207A1057E
S11301C0B105C8F480910A01882319F0813039F00F
S11301D00CC081E080930A010E943204089581E0FA
S11301E00E94360410920A01089581E00E943604A8
S11301F010920A010895AC01BD01485E53406109A3
S113020071094C3D55406105710520F482E08093ED
S11302100A010895843C9940A105B10518F083E0D2
S113022080930A0108958BE10E943E06811146C025
S11302300E946E008BE10E943E068823D9F38091D0
S11302401E0190911F01A0912001B0912101883ECF
S113025023E09207A105B105D0F480910901882318
S113026019F0813041F00DC081E08093090182E0F2
S11302700E943204089582E00E943604109209011B
S1130280089582E00E943604109209010895AC0199
S1130290BD01485E5340610971094C3D55406105FB
S11302A0710520F482E0809309010895843C99400B
S11302B0A105B10518F083E08093090108958AE14E
S11302C00E943E06811146C00E946E008AE10E948F
S11302D03E068823D9F380911E0190911F01A091BD
S11302E02001B0912101883E23E09207A105B105C8
S11302F0D0F480910801882319F0813041F00DC0B9
S113030081E08093080180E00E943204089580E037
S11303100E94360410920801089580E00E94360479
S1130320109208010895AC01BD01485E5340610973
S113033071094C3D55406105710520F482E08093BC
S113034008010895843C9940A105B10518F083E0A3
S11303508093080108950E94280485E690E00E9495
S1130360070460E081E00E941A0486E790E00E949E
S1130370070484E590E003C00E94E90290E084351C
S11303809105D1F38133910519F0C29729F002C088
S113039087E0089585E0089586E0089560911E0140
S11303A070911F01809120019091210128EE33E08A
S11303B040E050E00E942209672B682B692BD9F496
S11303C080910B01823019F48FE00E9476068091AF
S11303D00A01823019F481E00E94760680910901B5
S11303E0823011F40E94760680910801823019F45B
S11303F080E00E94760660911E0170911F01809139
S113040020019091210124E630E040E050E00E9478
S11304102209672B682B692BE1F480910B0183304F
S113042019F48FE00E94760680910A01833019F452
S113043081E00E94760680910901833019F482E0FC
S11304400E94760680910801833019F480E00E94AE
S1130450760608950E94280486E890E00E94070426
S113046060E081E00E941A0408950F931F93CF93D4
S11304700E942A0200E010E010C00E94E902C82F86
S113048001C0C4E5C435C9F38C2F0E940404F801EB
S1130490EF59FF4FC0830F5F1F4F033011058CF3DB
S11304A080916300843589F00E94280483E990E0F8
S11304B00E9407042FEF80E792E021508040904093
S11304C0E1F700C0000080E001C081E0CF911F91FE
S11304D00F910895EF92FF921F93CF93DF9300D073
S11304E01F92CDB7DEB784E589838A838B83E12CA1
S11304F0F12C14C00E94E902182F01C014E5143530
S1130500C9F3812F0E940404E1E0F0E0EC0FFD1F29
S1130510EE0DFF1D10832FEFE21AF20A83E0E816B6
S1130520F10464F38B81843539F180E090E01FC0DD
S1130530E1E0F0E0EC0FFD1FE80FF91F3081FC0152
S1130540EF59FF4F2081321789F00E94280484EA72
S113055090E00E9407049FEF20E782E09150204042
S11305608040E1F700C0000080E007C001968330BE
S11305709105F4F283E001C081E00F900F900F9099
S1130580DF91CF911F91FF90EF9008950E9428046E
S11305908CEA90E00E9407040E943A042FEF80E75F
S11305A092E0215080409040E1F700C0000008959F
S11305B061E080E10E94B70561E081E10E94B70536
S11305C061E082E10E94B70561E083E10E94B70522
S11305D00895FF920F931F93CF93DF930F2EF4E5AB
S11305E0FF2EF02D10E028C000E1010F60E0802F05
S11305F00E94B705D0E019C0C4E1CD0F8C2F0E9432
S11306003E06811111C0812F90E0FC01EE0FFF1F07
S1130610E80FF91FEB52FF4FED0FF11DF0808C2F07
S11306200E943E068823D9F3DF5FD33028F361E0CC
S1130630802F0E94B7051F5F1430B0F28F2DDF9119
S1130640CF911F910F91FF900895CF93C82F60E031
S113065083E00E94B7056C2F661F6627661F85E03E
S11306600E94B705C6FB662760F986E00E94B705BD
S1130670C5FB662760F987E00E94B705C4FB6627BF
S113068060F988E00E94B70561E084E00E94B70544
S11306908FE99FE00197F1F700C0000060E084E07B
S11306A00E94B7058FE99FE00197F1F700C00000B1
S11306B0C3FB662760F985E00E94B705C2FB662785
S11306C060F986E00E94B705C1FB662760F987E000
S11306D00E94B7056C2F617088E00E94B70561E045
S11306E084E00E94B7058FE99FE00197F1F700C00D
S11306F0000060E084E00E94B7058FE99FE0019765
S1130700F1F700C00000CF910895CF93C82F61E0A6
S113071083E00E94B7056C2F661F6627661F85E07D
S11307200E94B705C6FB662760F986E00E94B705FC
S1130730C5FB662760F987E00E94B705C4FB6627FE
S113074060F988E00E94B70561E084E00E94B70583
S11307508FE99FE00197F1F700C0000060E084E0BA
S11307600E94B7058FE99FE00197F1F700C00000F0
S1130770C3FB662760F985E00E94B705C2FB6627C4
S113078060F986E00E94B705C1FB662760F987E03F
S11307900E94B7056C2F617088E00E94B70561E084
S11307A084E00E94B7058FE99FE00197F1F700C04C
S11307B0000060E084E00E94B7058FE99FE00197A4
S11307C0F1F700C00000CF9108952FEF80E792E089
S11307D0215080409040E1F700C0000082E00E9478
S11307E0250388E20E9425038CE00E94250381E012
S11307F00E9425038FE99FE00197F1F700C00000F4
S113080086E00E94250308950E94850308950F93AE
S11308101F93CF938C01C0E003C00E940404CF5FF8
S1130820F801EC0FF11D80818111F7CFCF911F9159
S11308300F910895811105C0862F80680E942503B9
S11308400895813021F480EC860F0E9425030895D9
S113085081E00E9425038FE99FE00197F1F700C032
S11308600000089561E00E94B705089560E00E94C9
S1130870B705089561E08CE10E94B70560E08FE15F
S11308800E94B70581E0089585E08093640008958F
S113089078940E94A70582E00E94B70662E082E095
S11308A00E94C90664E474E082E00E9429070E9461
S11308B0D8020E94E5030E945D0004C00E94350234
S11308C08093640080916400813079F4F7CF0E94B2
S11308D0280481EE90E00E94070460E081E00E9419
S11308E01A040E946A028093640080916400882341
S11308F071F3833051F40E94C60285E08093640052
S113090004C00E94AB018093640080916400853030
S1130910C1F3863089F40E94280484EF90E00E9499
S113092007040AC00E9479000E94C8000E941301B3
S11309300E945F010E94CE0180916400863091F391
S113094004C00E9435028093640080916400873063
S1130950C1F3B8CF982F9695969596958770613088
S113096009F455C020F0623009F4A1C00895913013
S1130970C1F028F0923039F19330B9F108954AB3B7
S113098021E030E0B90102C0660F771F8A95E2F7D3
S1130990CB01942F982B9ABB9BB3809589238BBB57
S11309A0089547B321E030E0B90102C0660F771F14
S11309B08A95E2F7CB01942F982B97BB98B3809537
S11309C0892388BB089544B321E030E0B90102C013
S11309D0660F771F8A95E2F7CB01942F982B94BB6F
S11309E095B38095892385BB089541B321E030E018
S11309F0B90102C0660F771F8A95E2F7CB01942FE5
S1130A00982B91BB92B38095892382BB0895913032
S1130A10C1F028F0923039F19330B9F108954AB316
S1130A2021E030E0B90102C0660F771F8A95E2F732
S1130A30CB018095942F98239ABB9BB389238BBBBE
S1130A40089547B321E030E0B90102C0660F771F73
S1130A508A95E2F7CB018095942F982397BB98B39E
S1130A60892388BB089544B321E030E0B90102C072
S1130A70660F771F8A95E2F7CB018095942F982310
S1130A8094BB95B3892385BB089541B321E030E03D
S1130A90B90102C0660F771F8A95E2F7CB018095F2
S1130AA0942F982391BB92B3892382BB08959130EC
S1130AB0C1F028F0923039F19330B9F108954AB376
S1130AC021E030E0B90102C0660F771F8A95E2F792
S1130AD0CB01962F909594239ABB9BB3892B8BBB08
S1130AE0089547B321E030E0B90102C0660F771FD3
S1130AF08A95E2F7CB01962F9095942397BB98B3F0
S1130B00892B88BB089544B321E030E0B90102C0C9
S1130B10660F771F8A95E2F7CB01962F9095942361
S1130B2094BB95B3892B85BB089541B321E030E094
S1130B30B90102C0660F771F8A95E2F7CB01962FA1
S1130B409095942391BB92B3892B82BB0895CF9344
S1130B50C0E009C0EC2FF0E0EB54FF4F60818C2F14
S1130B600E94AA04CF5FC032A8F3CF910895982FB2
S1130B709695969596958770662309F43FC06130E3
S1130B8009F07BC0913099F028F09230E9F093306D
S1130B9041F108954BB321E030E0B90102C0660F82
S1130BA0771F8A95E2F7CB01842B8BBB089548B35A
S1130BB021E030E0B90102C0660F771F8A95E2F7A1
S1130BC0CB01842B88BB089545B321E030E0B90103
S1130BD002C0660F771F8A95E2F7CB01842B85BB91
S1130BE0089542B321E030E0B90102C0660F771FD7
S1130BF08A95E2F7CB01842B82BB08959130A1F052
S1130C0028F09230F9F0933059F108954BB321E074
S1130C1030E0B90102C0660F771F8A95E2F7CB0175
S1130C20809584238BBB089548B321E030E0B9015B
S1130C3002C0660F771F8A95E2F7CB018095842363
S1130C4088BB089545B321E030E0B90102C0660FC6
S1130C50771F8A95E2F7CB018095842385BB08959D
S1130C6042B321E030E0B90102C0660F771F8A95D4
S1130C70E2F7CB018095842382BB0895982F969543
S1130C8096959695482F4770913081F028F09230D0
S1130C90B9F09330F9F028C099B3892F90E002C0DD
S1130CA0959587954A95E2F78170089526B330E0CB
S1130CB0C90102C0959587954A95E2F78170089518
S1130CC023B330E0C90102C0959587954A95E2F7B0
S1130CD08170089520B330E0C90102C095958795CD
S1130CE04A95E2F78170089580E00895982F9695CB
S1130CF0969596958770913099F028F09230E9F0A6
S1130D00933041F108954BB321E030E0B90102C0C2
S1130D10660F771F8A95E2F7CB0184278BBB089572
S1130D2048B321E030E0B90102C0660F771F8A950D
S1130D30E2F7CB01842788BB089545B321E030E076
S1130D40B90102C0660F771F8A95E2F7CB018427A9
S1130D5085BB089542B321E030E0B90102C0660FBB
S1130D60771F8A95E2F7CB01842782BB08958130EF
S1130D7041F018F0823049F008958BB780648BBF3E
S1130D8008958BB780688BBF08958BB780628BBF43
S1130D900895813049F120F0823009F449C0089562
S1130DA0613069F028F0623089F06330B1F0089561
S1130DB085B78E7F85BF85B78D7F85BF089585B73D
S1130DC0816085BF85B78D7F85BF089585B78E7F88
S1130DD085BF85B7826085BF089585B7816085BF6B
S1130DE085B7826085BF0895613069F028F062306C
S1130DF089F06330B1F0089585B78B7F85BF85B7DF
S1130E00877F85BF089585B7846085BF85B7877F51
S1130E1085BF089585B78B7F85BF85B7886085BFFB
S1130E20089585B7846085BF85B7886085BF0895B8
S1130E30623019F0633029F008C084B78F7B84BF17
S1130E40089584B7806484BF089584B78F7B84BF7A
S1130E500895813049F018F0823059F00895709364
S1130E60110160931001089570930F0160930E01B6
S1130E70089570930D0160930C0108951F920F92D1
S1130E800FB60F9211242F933F934F935F936F9359
S1130E907F938F939F93AF93BF93EF93FF93E091CF
S1130EA01001F0911101309709F00995FF91EF912C
S1130EB0BF91AF919F918F917F916F915F914F916E
S1130EC03F912F910F900FBE0F901F9018951F9276
S1130ED00F920FB60F9211242F933F934F935F936A
S1130EE06F937F938F939F93AF93BF93EF93FF93EE
S1130EF0E0910E01F0910F01309709F00995FF91EF
S1130F00EF91BF91AF919F918F917F916F915F917D
S1130F104F913F912F910F900FBE0F901F901895F6
S1130F201F920F920FB60F9211242F933F934F935A
S1130F305F936F937F938F939F93AF93BF93EF933D
S1130F40FF93E0910C01F0910D01309709F00995A0
S1130F50FF91EF91BF91AF919F918F917F916F918D
S1130F605F914F913F912F910F900FBE0F901F9063
S1130F701895823029F128F4882341F0813099F0C2
S1130F8045C0833051F18430A9F140C08FB58E7FC4
S1130F908FBD8FB58D7F8FBD8EB5877F8EBD8EB58E
S1130FA08F7E8EBD33C08FB58E7F8FBD8FB58D7F05
S1130FB08FBD8EB588608EBD8EB580618EBD26C016
S1130FC08FB58E7F8FBD8FB58D7F8FBD8EB58860B9
S1130FD08EBD8EB58F7E8EBD19C08FB58E7F8FBDB1
S1130FE08FB582608FBD8EB588608EBD8EB58061F1
S1130FF08EBD0CC08FB581608FBD8FB582608FBDF3
S11310008EB588608EBD8EB580618EBD8EB5887FAD
S11310108EBD8EB5682B6EBD089589B7806189BF7A
S1131020089590931B0180931A0108951F920F92C3
S11310300FB60F9211242F933F934F935F936F93A7
S11310407F938F939F93AF93BF93EF93FF93E0911D
S11310501C01F0911D01309709F00995FF91EF9162
S1131060BF91AF919F918F917F916F915F914F91BC
S11310703F912F910F900FBE0F901F9018951F92C4
S11310800F920FB60F9211242F933F934F935F93B8
S11310906F937F938F939F93AF93BF93EF93FF933C
S11310A0E0911A01F0911B01309709F00995FF9125
S11310B0EF91BF91AF919F918F917F916F915F91CC
S11310C04F913F912F910F900FBE0F901F90189545
S11310D01F920F920FB60F9211242F933F934F93A9
S11310E05F936F937F938F939F93AF93BF93EF938C
S11310F0FF93E0911801F0911901309709F00995D7
S1131100FF91EF91BF91AF919F918F917F916F91DB
S11311105F914F913F912F910F900FBE0F901F90B1
S113112018951F920F920FB60F9211242F933F938D
S11311304F935F936F937F938F939F93AF93BF93DB
S1131140EF93FF93E0911601F0911701309709F0A6
S11311500995FF91EF91BF91AF919F918F917F91ED
S11311606F915F914F913F912F910F900FBE0F9010
S11311701F9018951F920F920FB60F9211242F9360
S11311803F934F935F936F937F938F939F93AF930B
S1131190BF93EF93FF93E0911401F0911501309701
S11311A009F00995FF91EF91BF91AF919F918F91B4
S11311B07F916F915F914F913F912F910F900FBE4F
S11311C00F901F9018951F920F920FB60F92112433
S11311D02F933F934F935F936F937F938F939F933B
S11311E0AF93BF93EF93FF93E0911201F09113013A
S11311F0309709F00995FF91EF91BF91AF919F91BD
S11312008F917F916F915F914F913F912F910F90AB
S11312100FBE0F901F901895CF93DF93EC0162E0FF
S113122082E00E94B90788E790E09BBD8ABDCE01A9
S11312300E9411080E940D08DF91CF9108951DBCF2
S11312401CBC0895A1E21A2EAA1BBB1BFD010DC0F4
S1131250AA1FBB1FEE1FFF1FA217B307E407F50762
S113126020F0A21BB30BE40BF50B661F771F881F3E
S1131270991F1A9469F760957095809590959B01D4
S10F1280AC01BD01CF010895F894FFCF2C
S113128C015454540131292045646974205061730C
S113129C73776F726400322920436F6E74726F6CB3
S11312AC206D6F6465005345542050415353574F80
S11312BC5244004E65772050617373776F726420CB
S11312CC53657400496E76616C696400434F5252E5
S11312DC45435421000000000000000000000202FD
S11312EC02000000000000000002020200010002E3
S11312FC02000000003132333435363738392A30A5
S113130C23456E746572205468652050617373773D
S113131C6F726400546F2065786974207072657301
S10B132C73206261636B000091
S9030000FC
